:020000040000fa
:080000000002040000000000f2
:020000040000fa
:04000800e40300000d
:020000040000fa
:04000c00e403000009
:020000040000fa
:04001000e403000005
:020000040000fa
:04001400e403000001
:020000040000fa
:04001800e4030000fd
:020000040000fa
:04001c00e4030000f9
:020000040000fa
:04002000e4030000f5
:020000040000fa
:04002400e4030000f1
:020000040000fa
:04002800e4030000ed
:020000040000fa
:04002c00e2020000ec
:020000040000fa
:04003000e4030000e5
:020000040000fa
:04003400e4030000e1
:020000040000fa
:04003800e4030000dd
:020000040000fa
:04003c003803000085
:020000040000fa
:04004000e4030000d5
:020000040000fa
:04004400c8020000ee
:020000040000fa
:04004800e4030000cd
:020000040000fa
:04004c00e4030000c9
:020000040000fa
:04005000e4030000c5
:020000040000fa
:04005400e4030000c1
:020000040000fa
:04005800e4030000bd
:020000040000fa
:04005c00e4030000b9
:020000040000fa
:04006000e4030000b5
:020000040000fa
:04006400e4030000b1
:020000040000fa
:04006800e4030000ad
:020000040000fa
:04006c00e4030000a9
:020000040000fa
:04007000e4030000a5
:020000040000fa
:04007400e4030000a1
:020000040000fa
:04007800e40300009d
:020000040000fa
:04007c00e403000099
:020000040000fa
:04008000e403000095
:020000040000fa
:04008400e403000091
:020000040000fa
:04008800e40300008d
:020000040000fa
:04008c00e403000089
:020000040000fa
:04009000e403000085
:020000040000fa
:04009400e403000081
:020000040000fa
:04009800e40300007d
:020000040000fa
:04009c00e403000079
:020000040000fa
:0400a000e403000075
:020000040000fa
:0400a400e403000071
:020000040000fa
:0400a800e40300006d
:020000040000fa
:0400ac00e403000069
:020000040000fa
:0400b000e403000065
:020000040000fa
:0400b400e403000061
:020000040000fa
:0400b800e40300005d
:020000040000fa
:0400bc008e030000af
:020000040000fa
:0400c000e403000055
:020000040000fa
:0400c400e403000051
:020000040000fa
:0400c800e40300004d
:020000040000fa
:0400cc00e403000049
:020000040000fa
:0400d000e403000045
:020000040000fa
:0400d400e403000041
:020000040000fa
:0400d800e40300003d
:020000040000fa
:0400dc00e403000039
:020000040000fa
:0400e000e403000035
:020000040000fa
:0400e400e403000031
:020000040000fa
:0400e800e40300002d
:020000040000fa
:0400ec00e403000029
:020000040000fa
:0400f000e403000025
:020000040000fa
:0400f400e403000021
:020000040000fa
:0400f800e40300001d
:020000040000fa
:0400fc00e403000019
:020000040000fa
:04010000e403000014
:020000040000fa
:04010400e403000010
:020000040000fa
:04010800e40300000c
:020000040000fa
:04010c00e403000008
:020000040000fa
:04011000e403000004
:020000040000fa
:04011400e403000000
:020000040000fa
:04011800e4030000fc
:020000040000fa
:04011c00e4030000f8
:020000040000fa
:04012000e4030000f4
:020000040000fa
:04012400e4030000f0
:020000040000fa
:04012800e4030000ec
:020000040000fa
:04012c00e4030000e8
:020000040000fa
:04013000e4030000e4
:020000040000fa
:04013400e4030000e0
:020000040000fa
:04013800e4030000dc
:020000040000fa
:04013c00e4030000d8
:020000040000fa
:04014000e4030000d4
:020000040000fa
:04014400e4030000d0
:020000040000fa
:04014800e4030000cc
:020000040000fa
:04020800e40300000b
:020000040000fa
:04020c00e403000007
:020000040000fa
:04021000e403000003
:020000040000fa
:04021400e4030000ff
:020000040000fa
:04021800e4030000fb
:020000040000fa
:04021c00e4030000f7
:020000040000fa
:04022000e4030000f3
:020000040000fa
:04022400e4030000ef
:020000040000fa
:04022800e4030000eb
:020000040000fa
:04022c00e2020000ea
:020000040000fa
:04023000e4030000e3
:020000040000fa
:04023400e4030000df
:020000040000fa
:04023800e4030000db
:020000040000fa
:04023c003803000083
:020000040000fa
:04024000e4030000d3
:020000040000fa
:04024400c8020000ec
:020000040000fa
:04024800e4030000cb
:020000040000fa
:04024c00e4030000c7
:020000040000fa
:04025000e4030000c3
:020000040000fa
:04025400e4030000bf
:020000040000fa
:04025800e4030000bb
:020000040000fa
:04025c00e4030000b7
:020000040000fa
:04026000e4030000b3
:020000040000fa
:04026400e4030000af
:020000040000fa
:04026800e4030000ab
:020000040000fa
:04026c00e4030000a7
:020000040000fa
:04027000e4030000a3
:020000040000fa
:04027400e40300009f
:020000040000fa
:04027800e40300009b
:020000040000fa
:04027c00e403000097
:020000040000fa
:04028000e403000093
:020000040000fa
:04028400e40300008f
:020000040000fa
:04028800e40300008b
:020000040000fa
:04028c00e403000087
:020000040000fa
:04029000e403000083
:020000040000fa
:04029400e40300007f
:020000040000fa
:04029800e40300007b
:020000040000fa
:04029c00e403000077
:020000040000fa
:0402a000e403000073
:020000040000fa
:0402a400e40300006f
:020000040000fa
:0402a800e40300006b
:020000040000fa
:0402ac00e403000067
:020000040000fa
:0402b000e403000063
:020000040000fa
:0402b400e40300005f
:020000040000fa
:0402b800e40300005b
:020000040000fa
:0402bc008e030000ad
:020000040000fa
:0402c000e403000053
:020000040000fa
:0402c400e40300004f
:020000040000fa
:0402c800e40300004b
:020000040000fa
:0402cc00e403000047
:020000040000fa
:0402d000e403000043
:020000040000fa
:0402d400e40300003f
:020000040000fa
:0402d800e40300003b
:020000040000fa
:0402dc00e403000037
:020000040000fa
:0402e000e403000033
:020000040000fa
:0402e400e40300002f
:020000040000fa
:0402e800e40300002b
:020000040000fa
:0402ec00e403000027
:020000040000fa
:0402f000e403000023
:020000040000fa
:0402f400e40300001f
:020000040000fa
:0402f800e40300001b
:020000040000fa
:0402fc00e403000017
:020000040000fa
:04030000e403000012
:020000040000fa
:04030400e40300000e
:020000040000fa
:04030800e40300000a
:020000040000fa
:04030c00e403000006
:020000040000fa
:04031000e403000002
:020000040000fa
:04031400e4030000fe
:020000040000fa
:04031800e4030000fa
:020000040000fa
:04031c00e4030000f6
:020000040000fa
:04032000e4030000f2
:020000040000fa
:04032400e4030000ee
:020000040000fa
:04032800e4030000ea
:020000040000fa
:04032c00e4030000e6
:020000040000fa
:04033000e4030000e2
:020000040000fa
:04033400e4030000de
:020000040000fa
:04033800e4030000da
:020000040000fa
:04033c00e4030000d6
:020000040000fa
:04034000e4030000d2
:020000040000fa
:04034400e4030000ce
:020000040000fa
:04034800e4030000ca
:020000040000fa
:100400004f8320000e7f22000e01880000000000b4
:10041000000020000000e000020032000001200087
:100420002002880014000700e90007000000e00037
:1004300003003a00e0e42000010020000200370041
:100440000000200001002000810f70000100320038
:1004500014000700000020000000e000020032004d
:100460000000020000000000fe0d0200000000007d
:100470000040da000000fe004440a9000000200017
:100480000000e0000300320000002000a00188000e
:100490004440a800000006008a1f78008b1f7800e7
:1004a0000000060091018800800478000000eb0045
:1004b0001a003700e284440032a0b4009905ba0063
:1004c000e284440032a0b4009906ba00e2844400f9
:1004d00032a0b4000006eb00476fde00fd07b2005b
:1004e000636ce10003003a00ebff07000000eb0043
:1004f0000a003700606ce10004003a00005deb0088
:100500008b05e900fdff3e00040037006168e10053
:10051000010032000086eb000b00070019c7ba008b
:100520001905ba000e04e00003003a000a00e000da
:10053000e0ff3a0000000600fe07b2009e018800be
:100540008a047800f5ff3700395dba008b05e900b1
:100550000c003200295dba008b05e900080032006a
:100560000c00e00003003a00e284440032a0b40032
:10057000f5ff370019ddba008b05e900faff3a00f4
:100580008904e800e184440032a0b40000000600c1
:10059000801f78003400f80000002000a0018800cf
:1005a0000000fa00f04080000000e800f040880001
:1005b00084e0a9000080fa003400f9004f007800c0
:1005c000004006003600f800809fbe00829fbe00fb
:1005d000849fbe00869fbe003400f800000020000b
:1005e000a00188000000fa008420a900f1408000ea
:1005f00000e823000088b90000007800800078003f
:1006000030088000008040008000eb0090408800af
:10061000a1408800100020006040880060408000f9
:10062000e10f50000a003a0070408000e10f5000d6
:1006300007003a0080408000e10f500004003a00bb
:10064000f10207000c28ef000e28ef001028ef0041
:100650000080fa003400f9004f03be004f02be00d4
:100660004f01be004f00be003600f90000400600fa
:100670003600f800809fbe00829fbe00849fbe00af
:10068000869fbe003400f80000002000a001880012
:100690000000fa0084a0a900f140800000e82300d7
:1006a0000088b900000078008000780030088000e1
:1006b000008040008000eb00b0408800c14088000e
:1006c000100020007040880060408000e10f500062
:1006d0000a003a0070408000e10f500007003a0025
:1006e00080408000e10f500004003a00c60207007d
:1006f0000c28ef000e28ef001028ef000080fa0011
:100700003400f9004f03be004f02be004f01be008f
:100710004f00be003600f900004006003600f80029
:10072000809fbe00829fbe00849fbe00869fbe0049
:100730003400f80000002000a00188000000fa004a
:1007400088a0a900f140800000e823000088b900db
:1007500000007800800078003008800000804000b1
:100760008000eb00d0408800e140880010002000ad
:100770008040880060408000e10f50000a003a008d
:1007800070408000e10f500007003a008040800078
:10079000e10f500004003a009b0207000c28ef0014
:1007a0000e28ef001028ef000080fa003400f90056
:1007b0004f03be004f02be004f01be004f00be00ff
:1007c0003600f900004006000040da000000fe009c
:1007d0000000050003f0a200889fbe008a9fbe00b3
:1007e0008c1f7800630107006a0133006450e10048
:1007f0004f0032006420e1005200320003826c009e
:1008000007003b000905d0000306d000820f54000a
:100810000c065d00020039000200320089017800f8
:10082000030678008582550004003d000003fd00aa
:100830008103fd008502ea008b854200840f72006f
:1008400002003b0060001000e08018006011b8005a
:100850000005eb007a28e1000a0039000600780064
:10086000c75ddd00f707b200878075002d003700f7
:10087000828171000a017800610560008180d100e9
:100880000080d3008502e900f9ff3b000604400028
:100890008784480002003b0060041400e0841c00d0
:1008a0000988a300070032008a81710082817100eb
:1008b000610164008904d1000884d3008b05e8003d
:1008c000170037000978a30013003a000b00e0007e
:1008d000130034008b05e9000804440089844c00af
:1008e0000a4474000978a3000d003a000b00e000f0
:1008f000070034008b05e9000804440089844c009b
:1009000001003a000b0020000978a300f7ff320035
:100910000001eb0002003700828171000a017800bb
:10092000d90007000cf0a70001f0a0002201370059
:100930006420e10002003a00838f6c002201330042
:100940000801be000200be001b013700889fbe00e8
:100950008a9fbe008c9fbe000004be00f00007000e
:100960000800be00890678006420e1000800390014
:10097000040032000160a0001202200092418800b1
:100980005300370091fc2300b0fd20004e003700db
:100990000006eb0009f0a10003f82300020020008c
:1009a0000800be00900007000600340001f8230094
:1009b000000020000801be00490007000004be003e
:1009c0002c0020000800be0093e82300320a230018
:1009d00085000700120034000801be00d1fd23008d
:1009e000703d2b007cff07000005be00b3f3230021
:1009f000f27a26000800be00f600070003f8230084
:100a00000200200073ff07000801be0072ff07000c
:100a10000a01be00320007000004be000c06e80018
:100a20000800be0001f0a10002002000039823008e
:100a30006d0007000800be00160035000801be006a
:100a4000e40007000005be0032cd2c0043fb23006c
:100a500061ff0700809fbe001269280003d52b00ac
:100a60000a00be00db000700620f210013ef2b001d
:100a700059ff07000a01be00d60007004f01be0063
:100a8000170007000801be00d20007000801be00e1
:100a900051ff07000c00e0000b0032000c10a70013
:100aa00001f0a200b2fd200093fc23006260e1008f
:100ab0000400320022a9200063f023000c10a700dc
:100ac00063f8230044ff07000df0a70001f0a20027
:100ad0004f06be004f05be004f04be0000000600da
:100ae000889fbe008a9fbe008c1f7800a10007006f
:100af000a800330003866c006450e1002e00320031
:100b00006420e100330032006150e1002f00320028
:100b10006120e1003100320085855500eb07b0000f
:100b200009002000080420000500370008044400e4
:100b300089844c000a0031000603430087834b0080
:100b40000001530081815b00f8ff33000203be0007
:100b50000800a0000804440089844c00f6ff390016
:100b6000c639dd008301730001003200130020004c
:100b70008904d1000884d3000998a300050032003d
:100b80000800a7000300a0008904d1000884d30056
:100b90008b05e8008904d1000884d3000001eb0034
:100ba0000281d2003800070001f0a1000cf0a7007c
:100bb00001f0a000800037006420e10082003200d4
:100bc0000801be000200be00f7ff37006120e1000f
:100bd0007d0032006000b800f3ff37000000200005
:100be00001f82700f0ff370014002000e200370072
:100bf000f4ff2f00e00037000001be0048000700ae
:100c00000470a70003f0a1006509b10016003200ce
:100c10000d0035006828e10006003500f0ff2f00c8
:100c2000f1ff27000300e00013003b000100280053
:100c30000000050000004000818048008502e900b6
:100c4000fcff3a0008003700f88f420002003c0029
:100c50008000eb00000005008100d1000080d3007f
:100c60008502e800fcff3a000300e00002003b00c0
:100c700060001000e0801800000006004f89de00d0
:100c800082017800d7003700810020006180550084
:100c90000b003d000b00200061fe2f000100e10071
:100ca0001d00340082817100610164008904d1005b
:100cb0000884d3000000e800faff3a007100200029
:100cc000610064000300700002006000090032004f
:100cd00061044400e0844c000988a500050032004e
:100ce0008b05e8006808e10002003a008904d100a1
:100cf0000884d300f20f20000258e10005003d00f7
:100d0000c75ddd00f907b200898075000800780032
:100d1000000006000bf827008b007800000005009b
:100d2000c70ade00f107b200f50fb200080032007a
:100d3000e1cf4200020032000170a0002400050053
:100d4000810f700001003200040805004400050016
:100d5000810f700002003a00140005008502e900ce
:100d60000000400081c04800fcff3b000170a00073
:100d7000240005000004be00e9ff07000003be00d8
:100d80000405be000200be00e5ff0700844f7500a9
:100d9000000006000200be006450e10005003600bd
:100da0006420e100020036000968a30001003a0057
:100db0000800be000160a0004f0678004f05be008d
:100dc0004f04be0000000600f0ff2f00f1ff2700d7
:100dd000f9ff3700889fbe008a9fbe008c1f7800f5
:100de000e4ff0700ebff330003866c006450e10072
:100df000240032006420e100270032006150e1004d
:100e0000220032006120e100210032008b85420087
:100e1000eb07b1000134b800003ab8000804420002
:100e200089844a00013ab8000030b8008880400048
:100e300009014a000400330000004000818048009e
:100e4000020149008b05e900c909dd00830170003a
:100e50000100320013002000c814de004814dd0039
:100e60004709de001200b200c808de0008847000e6
:100e700085ff070001f0a1000cf0a70001f0a00021
:100e8000cdff37006120e100cfff32000801be0036
:100e90000200be00f7ff37006150e100fcff3a009e
:100ea000c9ff3700889fbe008a9fbe008c1f780054
:100eb0000004be009aff07000478a30026003a0051
:100ec0006120e1002500320009f8a30025003a0066
:100ed0006420e10021003200f507b1000508a300fd
:100ee0000200320000004000818048006044b800e9
:100ef0000310200002002000000040008180480014
:100f00000805440089854c000a0541008b8549008d
:100f10000a0550008b855800030033000a00be000c
:100f200002047400838474008301d1000281d30021
:100f3000830f7100f0ff3a008904d1000884d300c8
:100f40006001490082017800c1adde00fb07b000fe
:100f50004dff070098ff37000960a0000800be00a1
:100f600095ff37001202200092418800f0ff2f0009
:100f7000f1ff270090ff3700889fbe008a9fbe00c8
:100f8000841f78007bff07004f00780011003300ba
:100f9000f0ff2f00838f6c0006003b000405650006
:100fa0000a00a7000800370009f0a6001000200082
:100fb00008003700820f5400838f5c000300390063
:100fc0001000200001003e000000200009f0a700f2
:100fd0000000ea004f05be004f04be000000e00024
:100fe00000000600881f7800030478000300e0007a
:100ff00007003d0060001000e0801800600119004b
:10100000e081190002003b0001f02d0003003700d1
:101010000400070008f0a70001f0a0004f047800ca
:1010200000000600889fbe008a9fbe0000827000fc
:101030000402710004827100260032000004be0028
:101040000200be006011b8006b092000950220006c
:101050000182cf000a0039000541b1000082cf00b3
:10106000070039000541b1000982cf0004003900b2
:101070000541b1000882cf00010039000541b100ef
:1010800005425200120032000a003b0082817100ca
:10109000610164008100d1000080d3008984d30005
:1010a0000884d3008b05e8000442e800f7ff3a000b
:1010b000070037000804440089844c000000480001
:1010c000818048008b05e9000442e900f9ff3a00fd
:1010d000edfe07004f05be004f04be0000000600f5
:020000040000fa
:1010e0000000fa001021ef000621ef00f0e72300d6
:1010f0006008880084e0a90094e0a80011e1a8003d
:10110000113a8000f00b2000008160006004200094
:1011100071052000237420008049780081497800ff
:10112000824978007134800000fe2f00008060004a
:101130000020a0007034880071348000f00f2e0071
:101140008080600000502000010070007034880032
:101150008134800000fe2f00008060006000b3003a
:1011600080348800103a8000000178000260a000fe
:10117000600420007105200023742000804978005d
:1011800081497800824978004221ef0042e1a800bd
:1011900010002000100a8800110a800080ff2f0034
:1011a000008060003000b300100a88009420a8007e
:1011b0004621ef0046e1a80010002000300a880018
:1011c000310a800080ff2f00008060003000b300f3
:1011d000300a880094a0a8004a21ef004ae1a80044
:1011e00010002000500a8800510a800080ff2f0064
:1011f000008060003000b300500a880098a0a8006a
:101200000080fa00000006003c00fa00889fbe0043
:101210008a9fbe0000002000011f2c00008fbe002e
:1012200000002000011f2c002007980031079800c3
:101230006000b80040079800510798006000b800af
:1012400060079800710798006000b800200f9800b0
:10125000310f980000242400f1002000000f9800b6
:10126000110f980092408000a3408000b0408000a1
:10127000c14080000000510081805900400f98005b
:10128000510f9800b2408000c3408000d0408000e1
:10129000e14080000000510081805900600f9800fb
:1012a000710f980092408000a3408000d0408000e1
:1012b000e140800000005100818059000017980033
:1012c000111798002601370002002000031f240098
:1012d0001e00be0044fe07000000e0000a003a00c5
:1012e00000002000011f2c00008fbe000200200023
:1012f00003f823002e009000be00900036fd07008a
:1013000020079800310798001e01be001e00be0095
:10131000b0fe07000004be002e019000be01900048
:101320002e009000be009000aafe07000001be0043
:101330000800be0028fd070020179800311798000c
:101340002e109000be109000d6fe070040179800a7
:10135000511798000200200003f823001e00be0071
:101360001dfd07000004be000200200003f823005a
:101370001e00be0018fd07000001be000800be00f0
:1013800094fe07000004be002e019000be019000f4
:101390002e009000be0090008efe07000001be00ef
:1013a0000800be000cfd0700601798007117980038
:1013b0006e109000fe109000bafe0700001f98000b
:1013c000111f98000200200003f823001e00be0039
:1013d00001fd07000004be000200200003f8230006
:1013e0001e00be00fcfc07000001be000800be009d
:1013f00078fe07000004be000200200003f823006e
:101400002e009000be009000f3fc07000005be0017
:101410000200200003f823002e009000be00900080
:10142000edfc07000001be000a00be0069fe0700d7
:101430000001be000800be00e7fc0700201f980066
:10144000311f98002e189000be18900095fe0700de
:10145000401f9800511f98000e1990009e1990008f
:101460004e109000de109000dafc0700004088006b
:10147000114088004e199000de1990000e1890005f
:101480009e189000d3fc070020408800314088005f
:101490004e199000de1990004e109000de10900062
:1014a000ccfc07004040880051408800004080008c
:1014b0001140800002802900c35d240045fe070022
:1014c0000004be004e089000de089000ebfd07000f
:1014d0000001be000800be00befc070018c0b3003b
:1014e0006011b800c0fd07000000e00001003500f9
:1014f0000044eb000804e0000f00320000408000d0
:101500001140800002802900c35d240031fe0700e5
:101510000004be004e089000de089000d7fd0700d2
:101520000001be000800be00aafc07000004be00c7
:1015300009f0a2000d00370000408000114080003b
:1015400002802900c35d240022fe07000004be00c3
:101550004e089000de089000c8fd07000001be00a4
:101560000800be009bfc07000004be002040800075
:101570003140800002802900c35d240015fe070071
:101580000005be006e089000fe089000bbfd07003d
:101590000001be000a00be008efc07001ac0b300a6
:1015a0006011b80090fd07000000e0000100350068
:1015b0000045eb000a04e0000e00320020408000ed
:1015c0003140800002802900c35d240001fe070035
:1015d0000005be006e089000fe089000a7fd070001
:1015e0000001be000a00be007afc070001f0a20064
:1015f0000c0037002040800031408000028029002c
:10160000c35d2400f3fd07000005be006e089000d6
:10161000fe08900099fd07000001be000a00be0010
:101620006cfc07000001be000800be006afc070059
:101630000004be004040800051408000028029002c
:10164000c35d2400e3fd07000005be000e109000fe
:101650009e10900089fd07000001be000a00be0038
:101660005cfc07001ac0b3006011b8005efd070003
:101670000000e000010035000045eb000a04e00036
:101680000e0032004040800051408000028029005e
:10169000c35d2400cffd07000005be000e109000c2
:1016a0009e10900075fd07000001be000a00be00fc
:1016b00048fc070001f0a2000c0037004040800009
:1016c0005140800002802900c35d2400c1fd070055
:1016d0000005be000e1090009e10900067fd0700f0
:1016e0000001be000a00be003afc07000001be0077
:1016f0000800be0038fc07003ffd0700200f9800df
:10170000310f98002e099000be0990000e0890003d
:101710009e089000800f5100818f59000b003d0002
:101720001e01be0042079800530798002e0190004a
:10173000be01900062079800730798002e09900080
:10174000be099000020f9800130f980002002000bd
:1017500003f823001e00be001ffc0700008fbe0020
:1017600018c0b30002002000831f24002e00900048
:10177000be0090001cfd07000000e00001003500e5
:101780000044eb000804e000cffe3a004e01900058
:10179000de0190006e009000fe009000d0fc07007b
:1017a0006afc0700020020004333240089fd070083
:1017b00062e5200093042400c9fc07000041880072
:1017c0001141880018c0b3006011b8004e009000ad
:1017d000de00900004fd07000000e000010035007d
:1017e0000044eb000804e0000700320000418000e4
:1017f000114180000200200043332400f6fb070063
:10180000004188001141880019c0b3006011b80080
:101810004e009000de009000f5fc07000000e000a4
:1018200001003c008044eb0018c0b3006011b80018
:101830006e009000fe009000ebfc07000000e0004e
:10184000010035000044eb0008c064000004e00023
:10185000070032000041800011418000020020009a
:10186000433b2400dcfb0700004188001141880055
:101870000041800011418000004188001141880032
:1018800004418000154180002041800031418000ea
:101890000001be000400be00cefb070018c0b3006c
:1018a0006011b800d0fc07000000e0000100350026
:1018b0000044eb000804e000110032000041800009
:1018c000114180000002be0005f0a200204180000e
:1018d000314180000001be000400be00bdfb0700d6
:1018e00018c0b30002002000030a2400c0fc070057
:1018f0000000e00010003c000044eb000e00370048
:101900000441800015418000204180003141800069
:101910000001be000400be00aefb070018c0b3000b
:1019200002002000030a2400b1fc07000000e000d0
:1019300001003c000044eb000804e0000e0032000f
:101940000441800015418000204180003141800029
:101950000001be000400be009efb0700404188005d
:1019600051418800004180001141800020418800e1
:101970003141880033003700044180001541800068
:1019800020418000314180000001be000400be0003
:1019900090fb070018c0b3006011b80092fc07006c
:1019a0000000e000010035000044eb000804e00006
:1019b0001100320000418000114180000002be0091
:1019c00005f0a20020418000314180000001be00ee
:1019d0000400be007ffb070018c0b3000200200017
:1019e000030a240080fc07000000e000100035001e
:1019f0000044eb000e0037000441800015418000d8
:101a000020418000314180000001be000400be0082
:101a100070fb070018c0b30002002000030a240076
:101a200071fc07000000e000010035000044eb00fd
:101a30000804e000030032006000b8004041880064
:101a4000514188006000b8004f05be004f04be0041
:101a50000080fa00000006000200fa00000f780083
:101a6000020037009d0007001e0fe9001e007800ed
:101a70000000e000fbff3a000080fa0000000600d2
:101a80000200fa00000f78001e007800e10f5000fd
:101a900003003a00cd82a900cda2a90011003700b1
:101aa0001e007800e20f500003003a00cd82a8002b
:101ab000cda2a9000b0037001e007800e30f5000f4
:101ac00003003a00cd82a900cda2a800050037008e
:101ad0001e007800e40f500002003a00cd82a800fa
:101ae000cda2a8000080fa00000006000800fa005d
:101af000300798006066260061fe2300008fbe005c
:101b00003e009000cf80de005cfc07001e01be009e
:101b1000f3fb070038fc0700200798002e00900018
:101b20000080fa00000006000200fa00000f7800b2
:101b3000cd62a900cdc2a9003028ef000700370010
:101b400066000700cd42aa0064000700cd42aa004b
:101b5000804180000000e8008041880080418000d2
:101b60009e0f5000f6ff35000080fa0000000600ce
:101b70000200fa00000f7800cd62a800cdc2a900d3
:101b80002e28ef000700370054000700cd42aa00be
:101b900052000700cd42aa00704180000000e8001a
:101ba00070418800704180009e0f5000f6ff3500a4
:101bb0000080fa00000006000000fa00213a8000d0
:101bc000f08f2f0000806000203a8800f0ff29008d
:101bd00060198800c022ef00c822ef00c422ef0085
:101be000cc22ef00411680000007200001007000a9
:101bf000401688000080fa00000006000400fa0089
:101c0000edff070036fd0700100020009cff0700d5
:101c10000000eb00000f78000000eb0010079800b8
:101c20001e009000c0ff0700e0012000afff07008a
:101c3000100798001e009000bbff0700007d2000e9
:101c400085ff0700c0032000a8ff070010079800c9
:101c50001e009000b4ff0700007d20007eff0700fb
:101c6000a0052000a1ff0700100798001e009000ab
:101c7000adff0700007d200077ff0700400b20002c
:101c80009aff0700100798001e009000a6ff0700ab
:0c1c9000007d200070ff0700e3ff37001c
:020000040000fa
:101c9c002808000006000000000000002e080000cc
:101cac0004000000000000000008000028000000f4
:101cbc0000000000320800000200000000000000dc
:041ccc000000000014
:020000040000fa
:101cd000390609000000000000000600793e0900f6
:081ce0000000000000000600f6
:020000040000fa
:020000040001f9
:0457f8000ff90000a5
:020000040000fa
:020000040001f9
:0457fc007f3f0000eb
:00000001FF
