:020000040000fa
:080000000002040000000000f2
:020000040000fa
:04000800c80200002a
:020000040000fa
:04000c00c802000026
:020000040000fa
:04001000c802000022
:020000040000fa
:04001400c80200001e
:020000040000fa
:04001800c80200001a
:020000040000fa
:04001c00c802000016
:020000040000fa
:04002000c802000012
:020000040000fa
:04002400c80200000e
:020000040000fa
:04002800c80200000a
:020000040000fa
:04002c00c802000006
:020000040000fa
:04003000c802000002
:020000040000fa
:04003400c8020000fe
:020000040000fa
:04003800c8020000fa
:020000040000fa
:04003c00c8020000f6
:020000040000fa
:04004000c8020000f2
:020000040000fa
:04004400c8020000ee
:020000040000fa
:04004800c8020000ea
:020000040000fa
:04004c00c8020000e6
:020000040000fa
:04005000c8020000e2
:020000040000fa
:04005400c8020000de
:020000040000fa
:04005800c8020000da
:020000040000fa
:04005c00c8020000d6
:020000040000fa
:04006000c8020000d2
:020000040000fa
:04006400c8020000ce
:020000040000fa
:04006800c8020000ca
:020000040000fa
:04006c00c8020000c6
:020000040000fa
:04007000c8020000c2
:020000040000fa
:04007400c8020000be
:020000040000fa
:04007800c8020000ba
:020000040000fa
:04007c00c8020000b6
:020000040000fa
:04008000c8020000b2
:020000040000fa
:04008400c8020000ae
:020000040000fa
:04008800c8020000aa
:020000040000fa
:04008c00c8020000a6
:020000040000fa
:04009000c8020000a2
:020000040000fa
:04009400c80200009e
:020000040000fa
:04009800c80200009a
:020000040000fa
:04009c00c802000096
:020000040000fa
:0400a000c802000092
:020000040000fa
:0400a400c80200008e
:020000040000fa
:0400a800c80200008a
:020000040000fa
:0400ac00c802000086
:020000040000fa
:0400b000c802000082
:020000040000fa
:0400b400c80200007e
:020000040000fa
:0400b800c80200007a
:020000040000fa
:0400bc00c802000076
:020000040000fa
:0400c000c802000072
:020000040000fa
:0400c400c80200006e
:020000040000fa
:0400c800c80200006a
:020000040000fa
:0400cc00c802000066
:020000040000fa
:0400d000c802000062
:020000040000fa
:0400d400c80200005e
:020000040000fa
:0400d800c80200005a
:020000040000fa
:0400dc00c802000056
:020000040000fa
:0400e000c802000052
:020000040000fa
:0400e400c80200004e
:020000040000fa
:0400e800c80200004a
:020000040000fa
:0400ec00c802000046
:020000040000fa
:0400f000c802000042
:020000040000fa
:0400f400c80200003e
:020000040000fa
:0400f800c80200003a
:020000040000fa
:0400fc00c802000036
:020000040000fa
:04010000c802000031
:020000040000fa
:04010400c80200002d
:020000040000fa
:04010800c802000029
:020000040000fa
:04010c00c802000025
:020000040000fa
:04011000c802000021
:020000040000fa
:04011400c80200001d
:020000040000fa
:04011800c802000019
:020000040000fa
:04011c00c802000015
:020000040000fa
:04012000c802000011
:020000040000fa
:04012400c80200000d
:020000040000fa
:04012800c802000009
:020000040000fa
:04012c00c802000005
:020000040000fa
:04013000c802000001
:020000040000fa
:04013400c8020000fd
:020000040000fa
:04013800c8020000f9
:020000040000fa
:04013c00c8020000f5
:020000040000fa
:04014000c8020000f1
:020000040000fa
:04014400c8020000ed
:020000040000fa
:04014800c8020000e9
:020000040000fa
:04020800c802000028
:020000040000fa
:04020c00c802000024
:020000040000fa
:04021000c802000020
:020000040000fa
:04021400c80200001c
:020000040000fa
:04021800c802000018
:020000040000fa
:04021c00c802000014
:020000040000fa
:04022000c802000010
:020000040000fa
:04022400c80200000c
:020000040000fa
:04022800c802000008
:020000040000fa
:04022c00c802000004
:020000040000fa
:04023000c802000000
:020000040000fa
:04023400c8020000fc
:020000040000fa
:04023800c8020000f8
:020000040000fa
:04023c00c8020000f4
:020000040000fa
:04024000c8020000f0
:020000040000fa
:04024400c8020000ec
:020000040000fa
:04024800c8020000e8
:020000040000fa
:04024c00c8020000e4
:020000040000fa
:04025000c8020000e0
:020000040000fa
:04025400c8020000dc
:020000040000fa
:04025800c8020000d8
:020000040000fa
:04025c00c8020000d4
:020000040000fa
:04026000c8020000d0
:020000040000fa
:04026400c8020000cc
:020000040000fa
:04026800c8020000c8
:020000040000fa
:04026c00c8020000c4
:020000040000fa
:04027000c8020000c0
:020000040000fa
:04027400c8020000bc
:020000040000fa
:04027800c8020000b8
:020000040000fa
:04027c00c8020000b4
:020000040000fa
:04028000c8020000b0
:020000040000fa
:04028400c8020000ac
:020000040000fa
:04028800c8020000a8
:020000040000fa
:04028c00c8020000a4
:020000040000fa
:04029000c8020000a0
:020000040000fa
:04029400c80200009c
:020000040000fa
:04029800c802000098
:020000040000fa
:04029c00c802000094
:020000040000fa
:0402a000c802000090
:020000040000fa
:0402a400c80200008c
:020000040000fa
:0402a800c802000088
:020000040000fa
:0402ac00c802000084
:020000040000fa
:0402b000c802000080
:020000040000fa
:0402b400c80200007c
:020000040000fa
:0402b800c802000078
:020000040000fa
:0402bc00c802000074
:020000040000fa
:0402c000c802000070
:020000040000fa
:0402c400c80200006c
:020000040000fa
:0402c800c802000068
:020000040000fa
:0402cc00c802000064
:020000040000fa
:0402d000c802000060
:020000040000fa
:0402d400c80200005c
:020000040000fa
:0402d800c802000058
:020000040000fa
:0402dc00c802000054
:020000040000fa
:0402e000c802000050
:020000040000fa
:0402e400c80200004c
:020000040000fa
:0402e800c802000048
:020000040000fa
:0402ec00c802000044
:020000040000fa
:0402f000c802000040
:020000040000fa
:0402f400c80200003c
:020000040000fa
:0402f800c802000038
:020000040000fa
:0402fc00c802000034
:020000040000fa
:04030000c80200002f
:020000040000fa
:04030400c80200002b
:020000040000fa
:04030800c802000027
:020000040000fa
:04030c00c802000023
:020000040000fa
:04031000c80200001f
:020000040000fa
:04031400c80200001b
:020000040000fa
:04031800c802000017
:020000040000fa
:04031c00c802000013
:020000040000fa
:04032000c80200000f
:020000040000fa
:04032400c80200000b
:020000040000fa
:04032800c802000007
:020000040000fa
:04032c00c802000003
:020000040000fa
:04033000c8020000ff
:020000040000fa
:04033400c8020000fb
:020000040000fa
:04033800c8020000f7
:020000040000fa
:04033c00c8020000f3
:020000040000fa
:04034000c8020000ef
:020000040000fa
:04034400c8020000eb
:020000040000fa
:04034800c8020000e7
:020000040000fa
:100400004f8020000e7f22000e01880000000000b7
:10041000000020000000e000020032000001200087
:1004200020028800140007005b0007000000e000c5
:1004300003003a004089200001002000020037003c
:100440000000200001002000810f70000100320038
:1004500014000700000020000000e000020032004d
:100460000000020000000000e005020000000000a3
:100470000040da000000fe004440a9000000200017
:100480000000e0000300320000002000a00188000e
:100490004440a800000006008a1f78008b1f7800e7
:1004a0000000060091018800800478000000eb0045
:1004b0001a003700e284440032a0b4009905ba0063
:1004c000e284440032a0b4009906ba00e2844400f9
:1004d00032a0b4000006eb00476fde00fd07b2005b
:1004e000636ce10003003a00ebff07000000eb0043
:1004f0000a003700606ce10004003a00005deb0088
:100500008b05e900fdff3e00040037006168e10053
:10051000010032000086eb000b00070019c7ba008b
:100520001905ba000e04e00003003a000a00e000da
:10053000e0ff3a0000000600fe07b2009e018800be
:100540008a047800f5ff3700395dba008b05e900b1
:100550000c003200295dba008b05e900080032006a
:100560000c00e00003003a00e284440032a0b40032
:10057000f5ff370019ddba008b05e900faff3a00f4
:100580008904e800e184440032a0b40000000600c1
:100590000040da000000fe000000050003f0a200a9
:1005a000889fbe008a9fbe008c1f7800fc00070059
:1005b000030133006450e1004f0032006420e10089
:1005c0005200320003826c0007003b000905d00096
:1005d0000306d000820f54000c065d0002003900b3
:1005e00002003200890178000306780085825500f8
:1005f00004003d000003fd008103fd008502ea00c8
:100600008b854200840f720002003b0060001000e6
:10061000e08018006011b8000005eb007a28e100c6
:100620000a00390006007800c75ddd00f707b20058
:10063000878075002d003700828171000a017800e3
:10064000610560008180d1000080d3008502e9004f
:10065000f9ff3b00060440008784480002003b008d
:1006600060041400e0841c000988a3000700320025
:100670008a81710082817100610164008904d10066
:100680000884d3008b05e800170037000978a30021
:1006900013003a000b00e000130034008b05e90062
:1006a0000804440089844c000a4474000978a300bb
:1006b0000d003a000b00e000070034008b05e90054
:1006c0000804440089844c0001003a000b0020001b
:1006d0000978a300f7ff32000001eb0002003700a9
:1006e000828171000a017800720007000cf0a700f7
:1006f00001f0a000bb0037006420e10002003a00d6
:10070000838f6c00bb0033000801be000200be00f6
:10071000b4003700889fbe008a9fbe008c1f7800ff
:100720009f000700a600330003866c006450e100c0
:100730002e0032006420e100330032006150e100fd
:100740002f0032006120e100310032008585550024
:10075000eb07b00009002000080420000500370066
:100760000804440089844c000a0031000603430059
:1007700087834b000001530081815b00f8ff330049
:100780000203be000800a0000804440089844c0055
:10079000f6ff3900c639dd00830173000100320025
:1007a000130020008904d1000884d3000998a30015
:1007b000050032000800a7000300a0008904d10052
:1007c0000884d3008b05e8008904d1000884d30095
:1007d0000001eb000281d2003600070001f0a10009
:1007e0000cf0a70001f0a0007e0037006420e100bb
:1007f000800032000801be000200be00f7ff370093
:100800006120e1007b0032006000b800f3ff370098
:100810000000200001f82700f0ff3700f4ff2f0050
:10082000770037000001be00480007000470a700f1
:1008300003f0a1006509b100160032000d0035007b
:100840006828e10006003500f0ff2f00f1ff2700c7
:100850000300e00013003b00010028000000050039
:1008600000004000818048008502e900fcff3a005a
:1008700008003700f88f420002003c008000eb00c7
:10088000000005008100d1000080d3008502e8004f
:10089000fcff3a000300e00002003b006000100093
:1008a000e0801800000006004f89de008201780019
:1008b0006e00370081002000618055000b003d0074
:1008c0000b00200061fe2f000100e1001d0034003c
:1008d00082817100610164008904d1000884d30021
:1008e0000000e800faff3a00710020006100640097
:1008f000030070000200600009003200610444003f
:10090000e0844c000988a500050032008b05e80052
:100910006808e10002003a008904d1000884d3008d
:10092000f20f20000258e10005003d00c75ddd0028
:10093000f907b20089807500080078000000060001
:100940000bf827008b00780000000500c70ade00c6
:10095000f107b200f50fb20008003200e1cf42000b
:10096000020032000170a00024000500810f700019
:10097000010032000408050044000500810f7000ea
:1009800002003a00140005008502e9000000400062
:1009900081c04800fcff3b000170a000240005005e
:1009a0000004be00e9ff07000003be000405be000e
:1009b0000200be00e5ff0700844f7500000006003e
:1009c0000200be006450e100050036006420e10032
:1009d000020036000968a30001003a000800be00ca
:1009e0000160a0004f0678004f05be004f04be0016
:1009f00000000600f0ff2f00f1ff2700f9ff37008d
:100a0000889fbe008a9fbe00841f7800e4ff070015
:100a10004f00780011003300f0ff2f00838f6c002f
:100a200006003b00040565000a00a7000800370027
:100a300009f0a6001000200008003700820f5400c3
:100a4000838f5c00030039001000200001003e008d
:100a50000000200009f0a7000000ea004f05be00da
:100a60004f04be000000e00000000600881f780070
:100a7000030478000300e00007003d006000100060
:100a8000e080180060011900e081190002003b00bd
:100a900001f02d00030037000400070008f0a70054
:100aa00001f0a0004f04780000000600889fbe00ff
:100ab0008a9fbe00008270000402710004827100ef
:100ac000260032000004be000200be006011b80023
:100ad0006b092000950220000182cf000a00390036
:100ae0000541b1000082cf00070039000541b10087
:100af0000982cf00040039000541b1000882cf000f
:100b0000010039000541b1000542520012003200d7
:100b10000a003b0082817100610164008100d10004
:100b20000080d3008984d3000884d3008b05e800bb
:100b30000442e800f7ff3a000700370008044400c9
:100b400089844c0000004800818048008b05e90042
:100b50000442e900f9ff3a0056ff07004f05be00c6
:080b60004f04be000000060076
:020000040000fa
:100b68000000fa00213a8000f08f2f00008060001a
:100b7800203a8800f0ff290060198800c822ef0099
:100b8800c022ef0041168000000728000100700015
:100b9800401688000421ef00b0ce2200100888001b
:100ba8000021ef008460a9000002280020088800c6
:100bb8000080fa00000006000c00fa00881f780088
:100bc800e7ff070010002000fc0007006000b800e5
:100bd800008fbe006000b800200798003107980019
:100be8006000b80040079800510798005016800030
:100bf800610060000000e000270032001e01be0016
:100c080022079800330798006000b8004007980052
:100c1800510798004e009000de0090000201070086
:100c2800008fbe002e019000be0190001e00be0085
:100c380058fe070018c0b3006011b800f5fe0700a1
:100c48000000e00001003c000044eb000804e00064
:100c5800080032002e019000be0190001e00be0068
:100c68004cfe0700edfe070000007800ff000700bb
:100c7800ba0037002e019000be0190001e00be0091
:100c880044fe070001f0a200e4fe0700000078001f
:100c980008010700b10037005016800062006000ac
:100ca8000000e000280032001e01be002207980064
:100cb800330798000000200001292400400798000d
:100cc800510798004e009000de009000d600070003
:100cd800008fbe002e019000be0190001e00be00d5
:100ce8002cfe070018c0b3006011b800c9fe070049
:100cf8000000e00001003c000044eb000804e000b4
:100d0800080032002e019000be0190001e00be00b7
:100d180020fe0700c1fe070000007800d30007008e
:100d28008e0037002e019000be0190001e00be000c
:100d380018fe070001f0a200b8fe070000007800c6
:100d4800dc00070085003700501680007000600046
:100d58000000e000280032001e01be0022079800b3
:100d68003307980000002000013124004007980054
:100d7800510798004e009000de009000aa0007007e
:100d8800008fbe002e019000be0190001e00be0024
:100d980000fe070018c0b3006011b8009dfe0700f0
:100da8000000e00001003c000044eb000804e00003
:100db800080032002e019000be0190001e00be0007
:100dc800f4fd070095fe070000007800a700070063
:100dd800620037002e019000be0190001e00be0088
:100de800ecfd070001f0a2008cfe0700000078006f
:100df800b00007005900370051168000000220009b
:100e0800008060000000e000280032001e01be00e3
:100e1800220798003307980000002000813524003d
:100e280040079800510798004e009000de0090009f
:100e38007d000700008fbe002e019000be019000cb
:100e48001e00be00d3fd070018c0b3006011b80033
:100e580070fe07000000e00001003c000044eb00c9
:100e68000804e000080032002e019000be01900046
:100e78001e00be00c7fd070068fe070000007800de
:100e88007a000700350037002e019000be0190005f
:100e98001e00be00bffd070001f0a2005ffe0700b4
:100ea80000007800830007002c00370051168000ee
:100eb80000042000008060000000e00027003200ed
:100ec8001e01be002207980033079800000020008a
:100ed8000139240040079800510798004e009000ff
:100ee800de00900050000700008fbe002e01900029
:100ef800be0190001e00be00a6fd070018c0b3008a
:100f08006011b80043fe07000000e00001003c004b
:100f18000044eb000804e000080032002e019000b5
:100f2800be0190001e00be009afd07003bfe0700b0
:100f3800000078004d000700080037002e019000df
:100f4800be0190001e00be0092fd070001f0a20045
:100f580032fe07000000780056000700401f2000fe
:100f68000c00070010168000004078006140600007
:100f78000004a200614060000080fb006100600086
:100f8800111680000100a1000100700010168800f1
:100f980016ff37000200fa00000f78000200370041
:100fa800590007001e0fe9001e0078000000e0004d
:100fb800fbff3a000080fa00000006000200fa0079
:100fc800000f78001e007800e10f500003003a007f
:100fd800cd82a900cda2a900110037001e0078001b
:100fe800e20f500003003a00cd82a800cda2a9006c
:100ff8000b0037001e007800e30f500003003a0092
:10100800cd82a900cda2a800050037001e007800f7
:10101800e40f500002003a00cd82a800cda2a8003b
:101028000080fa00000006000a00fa003007980065
:10103800410798006066260061fe2300008fbe000d
:101048001e01be003e009000ce009000affd0700dc
:10105800f2fd0700200798002e009000cf80de00e8
:101068000ffe07000080fa00000006000200fa00e8
:10107800000f7800cd62a900cdc2a9000228ef00b8
:101088000700370020000700cd42aa001e00070015
:10109800cd42aa00104080000000e80010408800ff
:1010a800104080009e0f5000f6ff35000080fa00c7
:1010b800000006000200fa00000f7800cd62a800c8
:1010c800cdc2a9000028ef00070037000e00070076
:1010d800cd42aa000c000700cd42aa0000408000c3
:1010e8000000e80000408800004080009e0f50008b
:1010f800f6ff35000080fa000000060039060900f6
:101108000000000000000600793e09000000000011
:1011180000000600793e09000000000000000600fb
:020000040000fa
:1011280000080000040000000000000000000000ab
:020000040000fa
:020000040001f9
:0457f8000ff90000a5
:020000040000fa
:020000040001f9
:0457fc007f3f0000eb
:00000001FF
