:020000040000fa
:080000000002040000000000f2
:020000040000fa
:04000800c80200002a
:020000040000fa
:04000c00c802000026
:020000040000fa
:04001000c802000022
:020000040000fa
:04001400c80200001e
:020000040000fa
:04001800c80200001a
:020000040000fa
:04001c00c802000016
:020000040000fa
:04002000c802000012
:020000040000fa
:04002400c80200000e
:020000040000fa
:04002800c80200000a
:020000040000fa
:04002c00c802000006
:020000040000fa
:04003000c802000002
:020000040000fa
:04003400c8020000fe
:020000040000fa
:04003800c8020000fa
:020000040000fa
:04003c00c8020000f6
:020000040000fa
:04004000c8020000f2
:020000040000fa
:04004400c8020000ee
:020000040000fa
:04004800c8020000ea
:020000040000fa
:04004c00c8020000e6
:020000040000fa
:04005000c8020000e2
:020000040000fa
:04005400c8020000de
:020000040000fa
:04005800c8020000da
:020000040000fa
:04005c00c8020000d6
:020000040000fa
:04006000c8020000d2
:020000040000fa
:04006400c8020000ce
:020000040000fa
:04006800c8020000ca
:020000040000fa
:04006c00c8020000c6
:020000040000fa
:04007000c8020000c2
:020000040000fa
:04007400c8020000be
:020000040000fa
:04007800c8020000ba
:020000040000fa
:04007c00c8020000b6
:020000040000fa
:04008000c8020000b2
:020000040000fa
:04008400c8020000ae
:020000040000fa
:04008800c8020000aa
:020000040000fa
:04008c00c8020000a6
:020000040000fa
:04009000c8020000a2
:020000040000fa
:04009400c80200009e
:020000040000fa
:04009800c80200009a
:020000040000fa
:04009c00c802000096
:020000040000fa
:0400a000c802000092
:020000040000fa
:0400a400c80200008e
:020000040000fa
:0400a800c80200008a
:020000040000fa
:0400ac00c802000086
:020000040000fa
:0400b000c802000082
:020000040000fa
:0400b400c80200007e
:020000040000fa
:0400b800c80200007a
:020000040000fa
:0400bc00c802000076
:020000040000fa
:0400c000c802000072
:020000040000fa
:0400c400c80200006e
:020000040000fa
:0400c800c80200006a
:020000040000fa
:0400cc00c802000066
:020000040000fa
:0400d000c802000062
:020000040000fa
:0400d400c80200005e
:020000040000fa
:0400d800c80200005a
:020000040000fa
:0400dc00c802000056
:020000040000fa
:0400e000c802000052
:020000040000fa
:0400e400c80200004e
:020000040000fa
:0400e800c80200004a
:020000040000fa
:0400ec00c802000046
:020000040000fa
:0400f000c802000042
:020000040000fa
:0400f400c80200003e
:020000040000fa
:0400f800c80200003a
:020000040000fa
:0400fc00c802000036
:020000040000fa
:04010000c802000031
:020000040000fa
:04010400c80200002d
:020000040000fa
:04010800c802000029
:020000040000fa
:04010c00c802000025
:020000040000fa
:04011000c802000021
:020000040000fa
:04011400c80200001d
:020000040000fa
:04011800c802000019
:020000040000fa
:04011c00c802000015
:020000040000fa
:04012000c802000011
:020000040000fa
:04012400c80200000d
:020000040000fa
:04012800c802000009
:020000040000fa
:04012c00c802000005
:020000040000fa
:04013000c802000001
:020000040000fa
:04013400c8020000fd
:020000040000fa
:04013800c8020000f9
:020000040000fa
:04013c00c8020000f5
:020000040000fa
:04014000c8020000f1
:020000040000fa
:04014400c8020000ed
:020000040000fa
:04014800c8020000e9
:020000040000fa
:04020800c802000028
:020000040000fa
:04020c00c802000024
:020000040000fa
:04021000c802000020
:020000040000fa
:04021400c80200001c
:020000040000fa
:04021800c802000018
:020000040000fa
:04021c00c802000014
:020000040000fa
:04022000c802000010
:020000040000fa
:04022400c80200000c
:020000040000fa
:04022800c802000008
:020000040000fa
:04022c00c802000004
:020000040000fa
:04023000c802000000
:020000040000fa
:04023400c8020000fc
:020000040000fa
:04023800c8020000f8
:020000040000fa
:04023c00c8020000f4
:020000040000fa
:04024000c8020000f0
:020000040000fa
:04024400c8020000ec
:020000040000fa
:04024800c8020000e8
:020000040000fa
:04024c00c8020000e4
:020000040000fa
:04025000c8020000e0
:020000040000fa
:04025400c8020000dc
:020000040000fa
:04025800c8020000d8
:020000040000fa
:04025c00c8020000d4
:020000040000fa
:04026000c8020000d0
:020000040000fa
:04026400c8020000cc
:020000040000fa
:04026800c8020000c8
:020000040000fa
:04026c00c8020000c4
:020000040000fa
:04027000c8020000c0
:020000040000fa
:04027400c8020000bc
:020000040000fa
:04027800c8020000b8
:020000040000fa
:04027c00c8020000b4
:020000040000fa
:04028000c8020000b0
:020000040000fa
:04028400c8020000ac
:020000040000fa
:04028800c8020000a8
:020000040000fa
:04028c00c8020000a4
:020000040000fa
:04029000c8020000a0
:020000040000fa
:04029400c80200009c
:020000040000fa
:04029800c802000098
:020000040000fa
:04029c00c802000094
:020000040000fa
:0402a000c802000090
:020000040000fa
:0402a400c80200008c
:020000040000fa
:0402a800c802000088
:020000040000fa
:0402ac00c802000084
:020000040000fa
:0402b000c802000080
:020000040000fa
:0402b400c80200007c
:020000040000fa
:0402b800c802000078
:020000040000fa
:0402bc00c802000074
:020000040000fa
:0402c000c802000070
:020000040000fa
:0402c400c80200006c
:020000040000fa
:0402c800c802000068
:020000040000fa
:0402cc00c802000064
:020000040000fa
:0402d000c802000060
:020000040000fa
:0402d400c80200005c
:020000040000fa
:0402d800c802000058
:020000040000fa
:0402dc00c802000054
:020000040000fa
:0402e000c802000050
:020000040000fa
:0402e400c80200004c
:020000040000fa
:0402e800c802000048
:020000040000fa
:0402ec00c802000044
:020000040000fa
:0402f000c802000040
:020000040000fa
:0402f400c80200003c
:020000040000fa
:0402f800c802000038
:020000040000fa
:0402fc00c802000034
:020000040000fa
:04030000c80200002f
:020000040000fa
:04030400c80200002b
:020000040000fa
:04030800c802000027
:020000040000fa
:04030c00c802000023
:020000040000fa
:04031000c80200001f
:020000040000fa
:04031400c80200001b
:020000040000fa
:04031800c802000017
:020000040000fa
:04031c00c802000013
:020000040000fa
:04032000c80200000f
:020000040000fa
:04032400c80200000b
:020000040000fa
:04032800c802000007
:020000040000fa
:04032c00c802000003
:020000040000fa
:04033000c8020000ff
:020000040000fa
:04033400c8020000fb
:020000040000fa
:04033800c8020000f7
:020000040000fa
:04033c00c8020000f3
:020000040000fa
:04034000c8020000ef
:020000040000fa
:04034400c8020000eb
:020000040000fa
:04034800c8020000e7
:020000040000fa
:100400004f8020000e7f22000e01880000000000b7
:10041000000020000000e000020032000001200087
:1004200020028800140007005b0007000000e000c5
:1004300003003a00c08820000100200002003700bd
:100440000000200001002000810f70000100320038
:1004500014000700000020000000e000020032004d
:100460000000020000000000ee0602000000000094
:100470000040da000000fe004440a9000000200017
:100480000000e0000300320000002000a00188000e
:100490004440a800000006008a1f78008b1f7800e7
:1004a0000000060091018800800478000000eb0045
:1004b0001a003700e284440032a0b4009905ba0063
:1004c000e284440032a0b4009906ba00e2844400f9
:1004d00032a0b4000006eb00476fde00fd07b2005b
:1004e000636ce10003003a00ebff07000000eb0043
:1004f0000a003700606ce10004003a00005deb0088
:100500008b05e900fdff3e00040037006168e10053
:10051000010032000086eb000b00070019c7ba008b
:100520001905ba000e04e00003003a000a00e000da
:10053000e0ff3a0000000600fe07b2009e018800be
:100540008a047800f5ff3700395dba008b05e900b1
:100550000c003200295dba008b05e900080032006a
:100560000c00e00003003a00e284440032a0b40032
:10057000f5ff370019ddba008b05e900faff3a00f4
:100580008904e800e184440032a0b40000000600c1
:100590000040da000000fe0000000500889fbe0059
:1005a0008a9fbe008c1f78009d000700a4003300c6
:1005b00003866c006450e1002e0032006420e100ec
:1005c000330032006150e1002f0032006120e10071
:1005d0003100320085855500eb07b000090020008e
:1005e00008042000050037000804440089844c00fa
:1005f0000a0031000603430087834b0000015300cb
:1006000081815b00f8ff33000203be000800a000f8
:100610000804440089844c00f6ff3900c639dd0027
:100620008301730001003200130020008904d1000f
:100630000884d3000998a300050032000800a70031
:100640000300a0008904d1000884d3008b05e800d2
:100650008904d1000884d3000001eb000281d2009c
:100660003400070001f0a1000cf0a70001f0a00089
:100670007c0037006420e1007e0032000801be00eb
:100680000200be00f7ff37006120e1007900320070
:100690006000b800f3ff37000000200001f82700d9
:1006a000f0ff37000001be00480007000470a700fb
:1006b00003f0a1006509b100160032000d003500fd
:1006c0006828e10006003500f0ff2f00f1ff270049
:1006d0000300e00013003b000100280000000500bb
:1006e00000004000818048008502e900fcff3a00dc
:1006f00008003700f88f420002003c008000eb0049
:10070000000005008100d1000080d3008502e800d0
:10071000fcff3a000300e00002003b006000100014
:10072000e0801800000006004f89de00820178009a
:100730005300370081002000618055000b003d0010
:100740000b00200061fe2f000100e1001d003400bd
:1007500082817100610164008904d1000884d300a2
:100760000000e800faff3a00710020006100640018
:1007700003007000020060000900320061044400c0
:10078000e0844c000988a500050032008b05e800d4
:100790006808e10002003a008904d1000884d3000f
:1007a000f20f20000258e10005003d00c75ddd00aa
:1007b000f907b20089807500080078000000060083
:1007c0000bf827008b00780000000500c70ade0048
:1007d000f107b200f50fb20008003200e1cf42008d
:1007e000020032000170a00024000500810f70009b
:1007f000010032000408050044000500810f70006c
:1008000002003a00140005008502e90000004000e3
:1008100081c04800fcff3b000170a00024000500df
:100820000004be00e9ff07000003be000405be008f
:100830000200be00e5ff0700844f750000000600bf
:100840000200be006450e100050036006420e100b3
:10085000020036000968a30001003a000800be004b
:100860000160a0004f0678004f05be004f04be0097
:1008700000000600f0ff2f00f1ff2700f9ff37000e
:10088000881f7800030478000300e00007003d00a3
:1008900060001000e080180060011900e08119007c
:1008a00002003b0001f02d000300370004000700a8
:1008b00008f0a70001f0a0004f0478000000060037
:1008c000889fbe008a9fbe000082700004027100f3
:1008d00004827100260032000004be000200be0047
:1008e0006011b8006b092000950220000182cf0042
:1008f0000a0039000541b1000082cf00070039002d
:100900000541b1000982cf00040039000541b10062
:100910000882cf00010039000541b10005425200b4
:10092000120032000a003b00828171006101640004
:100930008100d1000080d3008984d3000884d300d3
:100940008b05e8000442e800f7ff3a000700370093
:100950000804440089844c0000004800818048005d
:100960008b05e9000442e900f9ff3a0071ff070036
:0c0970004f05be004f04be000000060052
:020000040000fa
:10097c000200fa00004f78001602a80000000000e8
:10098c00b0108000610060000000e000fcff3a0045
:10099c008a40a900c00720009010880000000000c9
:1009ac0050048000640060000000e000fcff320096
:1009bc008a40a9001222ef000000000050048000c1
:1009cc00640060000000e000fcff32008a40a900d7
:1009dc001e00fb00901088000000000050048000f6
:1009ec00640060000000e000fcff32008a40a900b7
:1009fc001642a80000000000b010800064006000e7
:100a0c000000e000fcff3a008a40a9000080fa00d8
:100a1c00000006000200fa00000f7800a400070096
:100a2c0080c3b300d2ff070090c3b300d0ff070010
:100a3c0040c1b300ceff07001e00780000407800d4
:100a4c00cbff0700d0c5b300c9ff0700c0c6b30079
:100a5c00c7ff0700a100070080c3b300c4ff070055
:100a6c00e0c0b300c2ff070010c0b300c0ff070016
:100a7c0060092000850007000080fa0000000600d5
:100a8c000400fa002047980031479800ae409000cf
:100a9c00600020008008dd003e40900000c0400057
:100aac00004f78001e74a0001e407800b0ff0700b5
:100abc000080fa00000006000200fa00004f7800e7
:100acc001602a80000000000b01080006100600059
:100adc000000e000fcff3a008a40a900c00720009b
:100aec00901088000000000050048000640060003a
:100afc000000e000fcff32008a40a9000004200046
:100b0c009010880000000000500480006400600019
:100b1c000000e000fcff32008a40a9001e00fb0030
:100b2c0090108800000000005004800064006000f9
:100b3c000000e000fcff32008a40a9001642a80029
:100b4c0000000000b0108000640060000000e000b5
:100b5c00fcff3a008a40a9000080fa000000060061
:100b6c000400fa00100798000000eb00000f78005a
:100b7c001602a80000000000b010800061006000a8
:100b8c000000e000fcff3a008a40a900c0072000ea
:100b9c009010880000000000500480006400600089
:100bac000000e000fcff32008a40a9000000eb00ce
:100bbc00000f780015003700000c20009010880002
:100bcc000000000050048000640060000000e000a1
:100bdc00fcff32008a40a9001e0078009e009000a5
:100bec0000804000104078000000fb00901088004e
:100bfc000000000050048000640060000000e00071
:100c0c00fcff32008a40a9001e0fe8001e0078008d
:100c1c00e90f5000e8ff3400000420009010880019
:100c2c000000000050048000640060000000e00040
:100c3c00fcff32008a40a9001e0078009e00900044
:100c4c0000804000104078000000fb0090108800ed
:100c5c000000000050048000640060000000e00010
:100c6c00fcff32008a40a9001642a80000000000d8
:100c7c00b0108000640060000000e000fcff3a004f
:100c8c008a40a9000080fa00000006000200fa0069
:100c9c00000f7800010037001e0fe9001e007800dd
:100cac000000e000fcff3a000080fa0000000600a3
:100cbc000000fa000021ef008460a9000000000091
:100ccc0020048000680060000000e000fcff32009f
:100cdc008460a9000080fa00000006000200fa00ff
:100cec000000eb00000f78000021ef008460a900e9
:100cfc00070037000000000020048000680060003e
:100d0c000000e000fcff32008460a9001e0fe80028
:100d1c001e007800e30f5000f6ff34000080fa004c
:100d2c00000006000000fa00213a8000f08f2f002e
:100d3c0000806000203a8800f0ff290060198800cc
:100d4c00c822ef00c022ef004116800000072800e7
:100d5c0001007000401688000421ef00b0ce220084
:100d6c00100888000021ef008460a9000002280010
:100d7c002008880080088000800888000621ef0089
:100d8c00f0e723006008880084e0a90094e0a80044
:100d9c0011e1a8001221ef00a08621007008880044
:100dac000a21ef008500a9000003280090088800a4
:100dbc009500a80017e2a900d0092000a010880017
:100dcc0017e2a8008a40a9000080fa000000060083
:100ddc000800fa00d3ff0700700720000dff070082
:100dec0000d02700a9ff0700100020006e000700ac
:100dfc006000b800008fbe005016800061006000db
:100e0c000000e0000c0032006000b800008fbe0053
:100e1c001e00be007f0007002007980031079800d5
:100e2c002e009000be0090001bfe07000000780012
:100e3c0089000700450037005016800062006000f2
:100e4c000000e0000d003200000020000129240009
:100e5c00008fbe001e00be006e0007002007980029
:100e6c00310798002e009000be0090000afe07008b
:100e7c00000078007800070034003700501680001e
:100e8c00700060000000e0000d0032000000200047
:100e9c0001312400008fbe001e00be005d00070063
:100eac0020079800310798002e009000be0090009b
:100ebc00f9fd0700000078006700070023003700e9
:100ecc005116800000022000008060000000e0004d
:100edc000d0032000000200081352400008fbe0080
:100eec001e00be004b000700200798003107980039
:100efc002e009000be009000e7fd07000000780077
:100f0c005500070011003700511680000004200026
:100f1c00008060000000e0000c00320000002000a7
:100f2c0001392400008fbe001e00be0039000700ee
:100f3c0020079800310798002e009000be0090000a
:100f4c00d5fd0700000078004300070063ff070091
:100f5c001016800000407800614060000004a20080
:100f6c00614060000080fb00610060001116800091
:100f7c000100a10001007000101688009eff3700d0
:100f8c000200fa00000f7800020037005900070039
:100f9c001e0fe9001e0078000000e000fbff3a0085
:100fac000080fa00000006000200fa00000f780032
:100fbc001e007800e10f500003003a00cd82a9001a
:100fcc00cda2a900110037001e007800e20f5000de
:100fdc0003003a00cd82a800cda2a9000b00370077
:100fec001e007800e30f500003003a00cd82a900e8
:100ffc00cda2a800050037001e007800e40f5000b9
:10100c0002003a00cd82a800cda2a8000080fa0010
:10101c00000006000a00fa0030079800410798000b
:10102c006066260061fe2300008fbe001e01be001c
:10103c003e009000ce00900055fd070096fd070085
:10104c00200798002e009000cf80de00b3fd070033
:10105c000080fa00000006000200fa00000f780081
:10106c00cd62a900cdc2a9000228ef00070037000d
:10107c0020000700cd42aa001e000700cd42aa00a6
:10108c00104080000000e8001040880010408000f4
:10109c009e0f5000f6ff35000080fa00000006009d
:1010ac000200fa00000f7800cd62a800cdc2a900a2
:1010bc000028ef00070037000e000700cd42aa0001
:1010cc000c000700cd42aa00004080000000e800a0
:1010dc0000408800004080009e0f5000f6ff350055
:1010ec000080fa000000060039060900000000002c
:1010fc0000000600793e0900000000000000060018
:0c110c00793e0900000000000000060011
:020000040000fa
:1011180000080000040000000000000000000000bb
:020000040000fa
:020000040001f9
:0457f8000ff90000a5
:020000040000fa
:020000040001f9
:0457fc007f3f0000eb
:00000001FF
